:10F80000314080021542200175F335D0085A3F403F
:10F810000C000F930724824520012F839F4F8AFD00
:10F820000002F9233F4006000F9306248245200181
:10F830001F83CF430C02FA23B240805A2001F2D03A
:10F8400003002600F2D043002200D2D32700B012DA
:10F850003EF932D2F2D0FEFF5800F2D02000530021
:10F86000F2F0FDFF020032D0C000B240100064018F
:10F87000924204027401B240200160013F40230023
:10F88000B0127EFDB2400A000002824302023E40F6
:10F8900010270F43B01220FB0A4E0B4F384088133D
:10F8A00009430B930220089A092C3A5078EC3B63E9
:10F8B00032D0D8000B93F923089AF72B0A93092426
:10F8C0000F4A0F5F0F5A0F5F0F5F824F740132D0E4
:10F8D000D800B2F0EFFF6401D242FF105700D242CD
:10F8E000FE105600C24358003E4010270F43B0128E
:10F8F00020FB0A4E0B4FB01258F9824F1002F24013
:10F90000410021000F433D40A6001D83FE231F53ED
:10F910003F906400F8233F50BFFFB012FEF9C2438E
:10F920002100B2F0EFFF6201924204027401B012B2
:10F9300000FCB73F32D0F000FD3F304088FDB240C0
:10F9400060A0B201B2403838B001034303433F40E6
:10F950004C011F83FE233041B2D00300B00132D0EE
:10F9600018001F42B4013041B1C010000000001364
:10F97000A2426201B24020026001F2400A000D0280
:10F98000924270017201B250680072011F420E0271
:10F990003FD000010F5F824F0E02B2403010620173
:10F9A000B2B010006201FC23B2400002600130419D
:10F9B0000F120E120D12B250680072015F420D025A
:10F9C0004F931624B2D0800062011E420E021EB375
:10F9D0000B2012C30E10824E0E027F53C24F0D0237
:10F9E0003D413E413F410013B2F07FFF6201F13FD4
:10F9F000B2F0EFFF62013D413E413F4100130B1267
:10FA00000A120912081207120B4FB2403A000E02F6
:10FA1000B01270F90E4B12C30E100E110E110E1112
:10FA20003EF00F005A4E44FC8A11824A0E02B01278
:10FA300070F93BF00F00594B44FC891182490E02CA
:10FA4000B01270F9B24030000E02B01270F9B2403C
:10FA500034000E02B01270F91F4210028F103FF0F6
:10FA6000FF0012C30F100F110F110F115B4F44FC59
:10FA70008B11824B0E02B01270F91F4210028F10D0
:10FA80003FF00F00574F44FC871182470E02B0121F
:10FA900070F91F42100212C30F100F110F110F1136
:10FAA0003FF00F00584F44FC881182480E02B012FC
:10FAB00070F91F4210023FF00F005F4F44FC8F119E
:10FAC000824F0E020B5F3B509E000B570B580B5999
:10FAD0000B5AB01270F90F4B12C30F100F110F1108
:10FAE0000F113FF00F003A400E02DA4F44FC0000C5
:10FAF00092110E02B01270F93BF00F00DA4B44FC89
:10FB0000000092110E02B01270F9B24021000E02F4
:10FB1000B01270F93741384139413A413B413041E7
:10FB20000B120A1209120A4E0B4F1F4200021E420C
:10FB300002023F9014003C240E9321203F901500B8
:10FB40001E2C3F9005003F243F900A0039240943B2
:10FB5000B012E8FC1F932038099303240F11198376
:10FB6000FD230D4F0E4F8E108E118E108E110F4EE5
:10FB70000E4D0E5A0F6B39413A413B4130413F9097
:10FB80001E001A243F903C00E2230E93E023094E0E
:10FB9000B012E8FC1F93E0370F9317200D430E437C
:10FBA0000F4E0E4D0E5A0F6B39413A413B413041D9
:10FBB0000E93C2232943CC3F0E93C9231943C83F58
:10FBC00039400300C53F2942C33F099303240F1165
:10FBD0001983FD230D4F0E4F8E108E118E108E1136
:10FBE0003DE33EE31D530E63C23FA2932E01012469
:10FBF0000013925204027401B1C0D000000000133F
:10FC0000F2D0FEFF5800F2D020005300F2F0FDFFCA
:10FC1000020032D0C000B2401000640192420402DF
:10FC20007401B240200160013041D242FF10570000
:10FC3000D242FE105600C2435800304123008813C0
:10FC400000006800303132333435363738394142BC
:10FC5000434445460B120A120912094F2A4F0B431F
:10FC60000E4A0F4B4FEE0FEE8F107EF38E100E5E8E
:10FC70000F6F0E8A0F7B0E5E0F6F0E5E0F6F0E5AA8
:10FC80000F6B0C4E0D4F4DEC0DEC8D107CF38C106A
:10FC90000C5C0D6D0C8E0D7F0C5C0D6D0C5A0D6B9C
:10FCA0000E4C0F4D0E5E0F6F0E5E0F6F0E5E0F6FE0
:10FCB0000E5E0F6F0E5E0F6F0E5C0F6D0E5E0F6FA0
:10FCC0000E5E0F6F0E8A0F7B0E5E0F6F0E5E0F6F54
:10FCD0000E5A0F6B3E5039300F63894E00000F4EA5
:10FCE00039413A413B4130410B120A121A42080293
:10FCF0001B420A020E4A0F4B4FEE0FEE8F107EF39F
:10FD00008E100E5E0F6F0E8A0F7B0E5E0F6F0E5EF3
:10FD10000F6F0E5A0F6B0C4E0D4F4DEC0DEC8D10FE
:10FD20007CF38C100C5C0D6D0C8E0D7F0C5C0D6DDE
:10FD30000C5A0D6B0E4C0F4D0E5E0F6F0E5E0F6F5B
:10FD40000E5E0F6F0E5E0F6F0E5E0F6F0E5C0F6D0F
:10FD50000E5E0F6F0E5E0F6F0E8A0F7B0E5E0F6FC3
:10FD60000E5E0F6F0E5A0F6B3E5039300F63824E8E
:10FD70000802824F0A020F4E3A413B413041824F06
:0AFD8000080282430A02304100131A
:0CFD8A001400000060EA0000010000000E
:10FFE0003AF93AF93AF93AF93AF968F93AF93AF94B
:10FFF000EAFBB0F93AF93AF93AF93AF93AF900F87C
:040000030000F80001
:00000001FF
