:10F80000314080021542200175F335D0085A3F403F
:10F810000C000F930724824520012F839F4F1AFD70
:10F820000002F9233F4006000F9306248245200181
:10F830001F83CF430C02FA23B240805A2001F2D03A
:10F8400043002200E2D32600B0126EF932D2F2D089
:10F85000FEFF5800F2D020005300F2F0FDFF02003E
:10F8600032D0C000B2401000640192420402740120
:10F87000B240200160013F402300B012E4FCB240DE
:10F880000500000282430202B0124EFC0C4F0D4FE5
:10F890008D108D118D108D113A4088130B43B012CD
:10F8A000EEFC0A4E0B4F3A50C4090B6336408813E6
:10F8B00007430B930220069A0E2CD2D32100F2F0BC
:10F8C000FEFF21003A5078EC3B6332D0D8000B9316
:10F8D000F423069AF22B0A9309240F4A0F5F0F5A5A
:10F8E0000F5F0F5F824F740132D0D800B2F0EFFF8C
:10F8F0006401D242FF105700D242FE105600C243AC
:10F900005800B0124EFC0C4F0D4F8D108D118D1004
:10F910008D113A4088130B43B012EEFC0A4E0B4F88
:10F920003A50C4090B63F2D0410021003F40C800A7
:10F930003E40A6001E83FE233F53FA23B01288F9EF
:10F94000824F10023F402300B0122EFAF2F0BEFFA9
:10F950002100B2F0EFFF6201924204027401B01282
:10F9600066FBA73F32D0F000FD3F304018FDB240AB
:10F9700060A0B201B2403838B001034303433F40B6
:10F980004C011F83FE233041B2D00300B00132D0BE
:10F9900018001F42B4013041B1C010000000001334
:10F9A000A2426201B24020026001F2400A000D0250
:10F9B000924270017201B250680072011F420E0241
:10F9C0003FD000010F5F824F0E02B2403010620143
:10F9D000B2B010006201FC23B2400002600130416D
:10F9E0000F120E120D12B250680072015F420D022A
:10F9F0004F931624B2D0800062011E420E021EB345
:10FA00000B2012C30E10824E0E027F53C24F0D0206
:10FA10003D413E413F410013B2F07FFF6201F13FA3
:10FA2000B2F0EFFF62013D413E413F4100130B1236
:10FA30000A120912081207120B4FB2403A000E02C6
:10FA4000B012A0F90E4B12C30E100E110E110E11B2
:10FA50003EF00F005A4EAAFB8A11824A0E02B012E3
:10FA6000A0F93BF00F00594BAAFB891182490E0205
:10FA7000B012A0F9B24030000E02B012A0F9B240AC
:10FA800034000E02B012A0F91F4210028F103FF096
:10FA9000FF0012C30F100F110F110F115B4FAAFBC4
:10FAA0008B11824B0E02B012A0F91F4210028F1070
:10FAB0003FF00F00574FAAFB871182470E02B0128A
:10FAC000A0F91F42100212C30F100F110F110F11D6
:10FAD0003FF00F00584FAAFB881182480E02B01267
:10FAE000A0F91F4210023FF00F005F4FAAFB8F11D9
:10FAF000824F0E020B5F3B509E000B570B580B5969
:10FB00000B5AB012A0F90F4B12C30F100F110F11A7
:10FB10000F113FF00F003A400E02DA4FAAFB00002F
:10FB200092110E02B012A0F93BF00F00DA4BAAFBC3
:10FB3000000092110E02B012A0F9B24021000E0294
:10FB4000B012A0F93741384139413A413B41304187
:10FB5000A2932E0101240013925204027401B1C039
:10FB6000D00000000013F2D0FEFF5800F2D02000B9
:10FB70005300F2F0FDFF020032D0C000B24010008E
:10FB80006401924204027401B240200160013041DC
:10FB9000D242FF105700D242FE105600C243580016
:10FBA000304123008813000068003031323334358F
:10FBB000363738394142434445460B120A1209127E
:10FBC000094F2A4F0B430E4A0F4B4FEE0FEE8F108B
:10FBD0007EF38E100E5E0F6F0E8A0F7B0E5E0F6F20
:10FBE0000E5E0F6F0E5A0F6B0C4E0D4F4DEC0DEC61
:10FBF0008D107CF38C100C5C0D6D0C8E0D7F0C5CED
:10FC00000D6D0C5A0D6B0E4C0F4D0E5E0F6F0E5E90
:10FC10000F6F0E5E0F6F0E5E0F6F0E5E0F6F0E5C3E
:10FC20000F6D0E5E0F6F0E5E0F6F0E8A0F7B0E5EF6
:10FC30000F6F0E5E0F6F0E5A0F6B3E5039300F6311
:10FC4000894E00000F4E39413A413B4130410B1281
:10FC50000A121A4208021B420A020E4A0F4B4FEECA
:10FC60000FEE8F107EF38E100E5E0F6F0E8A0F7BDD
:10FC70000E5E0F6F0E5E0F6F0E5A0F6B0C4E0D4F18
:10FC80004DEC0DEC8D107CF38C100C5C0D6D0C8E1E
:10FC90000D7F0C5C0D6D0C5A0D6B0E4C0F4D0E5EF6
:10FCA0000F6F0E5E0F6F0E5E0F6F0E5E0F6F0E5EAC
:10FCB0000F6F0E5C0F6D0E5E0F6F0E5E0F6F0E8A74
:10FCC0000F7B0E5E0F6F0E5E0F6F0E5A0F6B3E5066
:10FCD00039300F63824E0802824F0A020F4E3A41BA
:10FCE0003B413041824F080282430A0230410FEF0C
:10FCF0000EEE394021000A3C08100E6E0F6F0F9B6C
:10FD0000052802200E9A02280E8A0F7B0C6C0D6DBE
:0AFD100008681983F1233041001345
:0CFD1A001400000060EA0000010000007E
:10FFE0006AF96AF96AF96AF96AF998F96AF96AF9CB
:10FFF00050FBE0F96AF96AF96AF96AF96AF900F8F6
:040000030000F80001
:00000001FF
