:10F80000314080021542200175F335D0085A3F403F
:10F810000C000F930724824520012F839F4F82FD08
:10F820000002F9233F4006000F9306248245200181
:10F830001F83CF430C02FA23B240805A2001F2D03A
:10F8400003002600F2D043002200F2F0FEFF270062
:10F85000B01236F932D2F2D0FEFF5800F2D02000BA
:10F860005300F2F0FDFF020032D0C000B2401000A1
:10F870006401924204027401B240200160013F40E1
:10F880002300B01276FDB2400A0000028243020259
:10F890003E4010270F43B01218FB0A4E0B4F384062
:10F8A000881309430B930220089A092C3A5078ECEC
:10F8B0003B6332D0D8000B93F923089AF72B0A93B5
:10F8C00009240F4A0F5F0F5A0F5F0F5F824F7401B9
:10F8D00032D0D800B2F0EFFF6401D242FF105700DF
:10F8E000D242FE105600C24358003E4010270F433C
:10F8F000B01218FB0A4E0B4FB01250F9824F100293
:10F90000F240410021003F40A6001F83FE233F40FC
:10F910002300B012F6F9C2432100B2F0EFFF6201FA
:10F92000924204027401B012F8FBBC3F32D0F000E6
:10F93000FD3F304080FDB24060A0B201B240383897
:10F94000B001034303433F404C011F83FE2330417A
:10F95000B2D00300B00132D018001F42B4013041D0
:10F96000B1C0100000000013A2426201B2402002A8
:10F970006001F2400A000D02924270017201B25021
:10F98000680072011F420E023FD000010F5F824FDC
:10F990000E02B24030106201B2B010006201FC23CE
:10F9A000B2400002600130410F120E120D12B2502F
:10F9B000680072015F420D024F931624B2D080009E
:10F9C00062011E420E021EB30B2012C30E10824EA5
:10F9D0000E027F53C24F0D023D413E413F41001395
:10F9E000B2F07FFF6201F13FB2F0EFFF62013D41F3
:10F9F0003E413F4100130B120A120912081207126E
:10FA00000B4FB2403A000E02B01268F90E4B12C30F
:10FA10000E100E110E110E113EF00F005A4E3CFC4E
:10FA20008A11824A0E02B01268F93BF00F00594B5E
:10FA30003CFC891182490E02B01268F9B2403000D4
:10FA40000E02B01268F9B24034000E02B01268F92A
:10FA50001F4210028F103FF0FF0012C30F100F1152
:10FA60000F110F115B4F3CFC8B11824B0E02B01239
:10FA700068F91F4210028F103FF00F00574F3CFCF7
:10FA8000871182470E02B01268F91F42100212C39A
:10FA90000F100F110F110F113FF00F00584F3CFCCA
:10FAA000881182480E02B01268F91F4210023FF01E
:10FAB0000F005F4F3CFC8F11824F0E020B5F3B50DB
:10FAC0009E000B570B580B590B5AB01268F90F4B8D
:10FAD00012C30F100F110F110F113FF00F003A401A
:10FAE0000E02DA4F3CFC000092110E02B01268F9CF
:10FAF0003BF00F00DA4B3CFC000092110E02B012FA
:10FB000068F9B24021000E02B01268F9374138415D
:10FB100039413A413B4130410B120A1209120A4E57
:10FB20000B4F1F4200021E4202023F9014003C2471
:10FB30000E9321203F9015001E2C3F9005003F247E
:10FB40003F900A0039240943B012E0FC1F9320388B
:10FB5000099303240F111983FD230D4F0E4F8E10AF
:10FB60008E118E108E110F4E0E4D0E5A0F6B3941A5
:10FB70003A413B4130413F901E001A243F903C00E7
:10FB8000E2230E93E023094EB012E0FC1F93E0370E
:10FB90000F9317200D430E430F4E0E4D0E5A0F6B51
:10FBA00039413A413B4130410E93C2232943CC3F76
:10FBB0000E93C9231943C83F39400300C53F29426A
:10FBC000C33F099303240F111983FD230D4F0E4FDB
:10FBD0008E108E118E108E113DE33EE31D530E6389
:10FBE000C23FA2932E010124001392520402740119
:10FBF000B1C0D00000000013F2D0FEFF5800F2D0D8
:10FC000020005300F2F0FDFF020032D0C000B240ED
:10FC100010006401924204027401B24020016001AC
:10FC20003041D242FF105700D242FE105600C2436C
:10FC3000580030412300881300006800303132330F
:10FC40003435363738394142434445460B120A129F
:10FC50000912094F2A4F0B430E4A0F4B4FEE0FEE7E
:10FC60008F107EF38E100E5E0F6F0E8A0F7B0E5E6E
:10FC70000F6F0E5E0F6F0E5A0F6B0C4E0D4F4DEC4B
:10FC80000DEC8D107CF38C100C5C0D6D0C8E0D7FCB
:10FC90000C5C0D6D0C5A0D6B0E4C0F4D0E5E0F6F04
:10FCA0000E5E0F6F0E5E0F6F0E5E0F6F0E5E0F6FAC
:10FCB0000E5C0F6D0E5E0F6F0E5E0F6F0E8A0F7B68
:10FCC0000E5E0F6F0E5E0F6F0E5A0F6B3E50393087
:10FCD0000F63894E00000F4E39413A413B4130419C
:10FCE0000B120A121A4208021B420A020E4A0F4B5A
:10FCF0004FEE0FEE8F107EF38E100E5E0F6F0E8A9A
:10FD00000F7B0E5E0F6F0E5E0F6F0E5A0F6B0C4E59
:10FD10000D4F4DEC0DEC8D107CF38C100C5C0D6DCB
:10FD20000C8E0D7F0C5C0D6D0C5A0D6B0E4C0F4D37
:10FD30000E5E0F6F0E5E0F6F0E5E0F6F0E5E0F6F1B
:10FD40000E5E0F6F0E5C0F6D0E5E0F6F0E5E0F6F0F
:10FD50000E8A0F7B0E5E0F6F0E5E0F6F0E5A0F6BCB
:10FD60003E5039300F63824E0802824F0A020F4E16
:10FD70003A413B413041824F080282430A023041FE
:02FD800000136E
:0CFD82001400000060EA00000100000016
:10FFE00032F932F932F932F932F960F932F932F98B
:10FFF000E2FBA8F932F932F932F932F932F900F8B4
:040000030000F80001
:00000001FF
