:100000000C9462000C948A000C948A000C948A0070
:100010000C948A000C948A000C948A000C948A0038
:100020000C948A000C948A000C948A000C948A0028
:100030000C948A000C948A000C948A000C948A0018
:100040000C942C050C948A000C9446030C947703B2
:100050000C948A000C948A000C948A000C948A00F8
:100060000C948A000C948A000000000024002700F1
:100070002A0000000000250028002B0000000000DE
:1000800023002600290004040404040404040202DA
:100090000202020203030303030301020408102007
:1000A0004080010204081020010204081020000012
:1000B0000007000201000003040600000000000029
:1000C00000003C0411241FBECFEFD8E0DEBFCDBF3F
:1000D00011E0A0E0B1E0ECE7FEE002C005900D9277
:1000E000A632B107D9F711E0A6E2B1E001C01D9236
:1000F000A03FB107E1F710E0C4ECD0E004C02297C4
:10010000FE010E94E306C23CD107C9F70E947E02AD
:100110000C943C070C9400008AE3809326018091A4
:10012000140180933F01282F2F7020933E019927BF
:1001300087FD909534E0959587953A95E1F7382FAE
:100140003F7030933D0184E091E0FC01E30FF11D2D
:10015000308130932701FC01E20FF11D20812093B3
:10016000280150E35093290123E320932A01209191
:100170003801322F32953F70FC01E30FF11D4081B1
:1001800040932B012F70FC01E20FF11D3081309361
:100190002C0160913701262F22952F70FC01E20F70
:1001A000F11D208120932D016F70860F911DFC01A0
:1001B000808180932E0140932F0130933001209352
:1001C0003101809332014093330130933401209305
:1001D0003501809336015093370181E380933801D4
:1001E0008DE0809339018AE080933A01089581E09F
:1001F0000E940606809337019093380108952F924C
:100200003F924F925F926F927F929F92AF92BF9276
:10021000CF92DF92EF92FF920F931F93DF93CF93D2
:1002200000D000D00F92CDB7DEB78C01B62E198268
:100230001A821B821C821D82862F61E00E94A60406
:100240008B2D60E00E94CA0462E170E080E090E0E3
:100250000E949A058B2D61E00E94CA0488E290E01A
:100260000E94C1058B2D60E00E94A604B0E1EB2E38
:10027000B7E2FB2E07C0E114F10409F482C0089430
:10028000E108F1088B2D0E9402050097A1F3A0E17F
:10029000EA2EA7E2FA2E07C0E114F10409F471C0B6
:1002A0000894E108F1088B2D0E9402058130910528
:1002B00099F3F8E2CF2ED12C9924E7E0AE2E71E02D
:1002C000672E712C08C0E114F10409F45AC0089497
:1002D000E108F10804C060E1E62E67E2F62E8B2DFE
:1002E0000E940205009779F30E9474051B012C01FE
:1002F00050E1E52E57E2F52E07C0E114F10409F4B0
:1003000040C00894E108F1088B2D0E94020581305D
:10031000910599F30E94740562197309840995097E
:10032000693271058105910580F0E1E0F0E0EC0FA4
:10033000FD1FE90DF11DC3010A2C02C0880F991F92
:100340000A94E2F72081282B2083AA2021F4939499
:1003500047E0A42E01C0AA940894C108D108C11492
:10036000D10409F0B8CF8981F801808311829B8183
:1003700092831382890F9D81981731F02FEF3FEF01
:1003800005C02EEF3FEF02C020E030E0C9010F9022
:100390000F900F900F900F90CF91DF911F910F91C1
:1003A000FF90EF90DF90CF90BF90AF909F907F90A5
:1003B0006F905F904F903F902F90089588EC91E060
:1003C00040E855E260E070E00E94BE0380E00E94D9
:1003D00006060E941002089589E391E064E070E04F
:1003E0000E94FF000E94F7000E948C0088EC91E0C0
:1003F00066E271E045E150E00E94540268E873E172
:1004000080E090E020E137E240E050E00E943602D8
:100410000E949A0580E00E9406060E94100208953C
:10042000009729F0BC0180E090E00E943307089516
:10043000EF92FF920F931F937B018C016115710561
:100440008105910549F00E942E07A80197010E949D
:100450007B069B01AC0103C020E030E0A901B9019B
:10046000CA011F910F91FF90EF900895EF92FF92B4
:100470000F931F937B018C01621773078407950705
:1004800064F4CA01B9016E197F09800B910B0E94B7
:100490001802E60EF71E081F191FB701C8011F91A9
:1004A0000F91FF90EF900895CF92DF92EF92FF921D
:1004B0000F931F93CF93DF936C017B018A01C0E000
:1004C000D0E00FC0D7016D917D01D601ED91FC9177
:1004D0000190F081E02DC6010995C80FD91F015088
:1004E00010400115110571F7CE01DF91CF911F91D9
:1004F0000F91FF90EF90DF90CF900895CF93DF930F
:100500000E94CB050E94DE01CEE6D3E00E94EC0102
:100510002097E1F30E946E03F9CFFC018485958555
:10052000FC01E05CFF4F208131818E5B9F4FFC011D
:1005300080819181281B390B2F733070C901089578
:10054000FC0184859585FC01E05CFF4F4081518171
:10055000FC01EE5BFF4F208131814217530741F0D0
:100560000190F081E02DE80FF91F208130E002C0FA
:100570002FEF3FEFC9010895FC0184859585FC01AB
:10058000E05CFF4F40815181FC01EE5BFF4F208119
:1005900031814217530771F0A081B181A80FB91FB3
:1005A0002C918081918101968F73907091838083CB
:1005B00030E002C02FEF3FEFC9010895DC011E9625
:1005C0008D919C911F97FC01E05CFF4F8E5B9F4FCC
:1005D00040815181DC012D913C91119742175307C5
:1005E000B9F70895CF93FC01C62F26853785D90129
:1005F000A05CBF4F8D919C91019660E470E00E94D9
:100600004606D901AE5BBF4F4D915C91119784179F
:100610009507D1F3D901A05CBF4F0D90BC91A02DDF
:10062000A20FB31FCC93A685B785A05CBF4F1196D0
:100630009C938E93A689B7892C9181E090E0058CDC
:1006400002C0880F991F0A94E2F7282B2C9381E0AF
:1006500090E0CF910895FB01E05CFF4F2081318154
:100660002F5F3F4F2F733070DB01AE5BBF4F4D915B
:100670005C9111972417350739F0A081B181A60F3D
:10068000B71F8C9331832083089508951F920F9292
:100690000FB60F9211242F933F934F935F936F9355
:1006A0007F938F939F93AF93BF93EF93FF9380912B
:1006B000C60060E471E00E942B03FF91EF91BF91AF
:1006C000AF919F918F917F916F915F914F913F91EA
:1006D0002F910F900FBE0F901F90189588EC91E00E
:1006E0000E948D02009711F00E94450308951F9209
:1006F0000F920FB60F9211242F933F935F936F9336
:100700007F938F939F93AF93BF93EF93FF9320912A
:10071000C4013091C5018091C6019091C70128178D
:10072000390731F48091C1008F7D8093C10016C0DC
:10073000E091C601F091C701EC57FE4F20818091F6
:10074000C6019091C701019660E470E00E944606E0
:100750009093C7018093C6012093C600FF91EF914B
:10076000BF91AF919F918F917F916F915F913F91D9
:100770002F910F900FBE0F901F901895DF92EF9260
:10078000FF920F931F93CF93DF93EC017A018B01BC
:10079000DD24D394403081EE580780E0680780E084
:1007A000780749F4DD24EC89FD89108260E874E85B
:1007B0008EE190E00FC0EC89FD8981E090E00E8C25
:1007C00002C0880F991F0A94E2F7808360E079E005
:1007D0008DE390E0A80197010E9459062150304016
:1007E00040405040569547953795279580E12030F9
:1007F000380710F0DD20B1F6E889F9893083EA89FD
:10080000FB892083EE89FF89408181E090E09C0193
:100810000A8C02C0220F331F0A94E2F7422B408356
:10082000EE89FF8940819C010B8C02C0220F331F8F
:100830000A94E2F7422B4083EE89FF8940819C01B4
:100840000C8C02C0220F331F0A94E2F7422B408324
:10085000EE89FF8920810D8C02C0880F991F0A94B0
:10086000E2F7809582238083DF91CF911F910F91D2
:10087000FF90EF90DF9008951092CB011092CA0183
:1008800088EE93E0A0E0B0E08093CC019093CD019E
:10089000A093CE01B093CF01EAECF1E08AE191E0C0
:1008A0009293829380E491E09587848784E891E035
:1008B0009787868785EC90E0918B808B84EC90E025
:1008C000938B828B80EC90E0958B848B81EC90E015
:1008D000978B868B86EC90E0918F808F84E0828F5F
:1008E00083E0838F87E0848F85E0858F81E0868F2A
:1008F0000895833071F0843028F48130A1F0823083
:1009000021F514C08630B1F08730D1F08430E9F49D
:1009100004C0809180008F7703C0809180008F7D1C
:1009200080938000089584B58F7702C084B58F7D51
:1009300084BD08958091B0008F778093B0000895B2
:100940008091B0008F7D8093B000089590E0FC010D
:10095000E656FF4F2491FC01EA57FF4FE491EE2346
:10096000C1F0F0E0EE0FFF1FE859FF4F8591949121
:10097000DC01662341F49FB7F8948C912095822383
:100980008C939FBF08959FB7F8948C91822B8C9382
:100990009FBF08950F931F93DF93CF930F92CDB70F
:1009A000DEB7282F30E0F901E255FF4F8491F901BD
:1009B000E656FF4F14912A573F4FF9010491002347
:1009C000D9F0882321F069830E9479046981E02F9E
:1009D000F0E0EE0FFF1FEE58FF4F85919491DC0180
:1009E0009FB7F894662321F48C911095812302C05F
:1009F0008C91812B8C939FBF0F90CF91DF911F9192
:100A00000F910895CF93DF93282F30E0F901E2553D
:100A1000FF4F8491F901E656FF4FD4912A573F4F7B
:100A2000F901C491CC2391F0882311F00E9479043C
:100A3000EC2FF0E0EE0FFF1FE458FF4F85919491EB
:100A4000DC018C918D2321E030E011F420E030E0D6
:100A5000C901DF91CF9108951F920F920FB60F92A7
:100A600011242F933F938F939F93AF93BF938091C4
:100A7000EB019091EC01A091ED01B091EE0130916C
:100A8000EF010196A11DB11D232F2D5F2D3720F001
:100A90002D570196A11DB11D2093EF018093EB010D
:100AA0009093EC01A093ED01B093EE018091E701EA
:100AB0009091E801A091E901B091EA010196A11D90
:100AC000B11D8093E7019093E801A093E901B093F1
:100AD000EA01BF91AF919F918F913F912F910F901C
:100AE0000FBE0F901F9018959FB7F8942091E701C3
:100AF0003091E8014091E9015091EA0186B5A89B47
:100B000006C08F3F21F02F5F3F4F4F4F5F4F9FBF7A
:100B1000542F432F322F2227280F311D411D511DE5
:100B200082E0220F331F441F551F8A95D1F7B90168
:100B3000CA010895EF92FF920F931F93CF93DF9313
:100B40007B018C010E947405EB010FC00E947405AB
:100B50006C1B7D0B83E0683E780738F00894E10851
:100B6000F10801091109C851DC4FE114F104010534
:100B7000110561F7DF91CF911F910F91FF90EF90D9
:100B80000895019739F0880F991F880F991F0297D0
:100B90000197F1F70895789484B5826084BD84B597
:100BA000816084BD85B5826085BD85B5816085BD68
:100BB000EEE6F0E0808181608083E1E8F0E0108281
:100BC000808182608083808181608083E0E8F0E0C2
:100BD000808181608083E1EBF0E0808184608083AC
:100BE000E0EBF0E0808181608083EAE7F0E08081E3
:100BF0008460808380818260808380818160808343
:100C00008081806880831092C10008958E3008F042
:100C10008E508770909115019295990F990F907C45
:100C2000982B90937C0080917A00806480937A0066
:100C300080917A0086FDFCCF209178003091790078
:100C4000932F80E030E0282B392BC9010895629F53
:100C5000D001739FF001829FE00DF11D649FE00DB4
:100C6000F11D929FF00D839FF00D749FF00D659F15
:100C7000F00D9927729FB00DE11DF91F639FB00D14
:100C8000E11DF91FBD01CF011124089597FB092E25
:100C900007260AD077FD04D049D006D000201AF4E8
:100CA000709561957F4F0895F6F7909581959F4FC8
:100CB0000895A1E21A2EAA1BBB1BFD010DC0AA1F9D
:100CC000BB1FEE1FFF1FA217B307E407F50720F0B5
:100CD000A21BB30BE40BF50B661F771F881F991F30
:100CE0001A9469F760957095809590959B01AC0179
:100CF000BD01CF01089597FB092E05260ED057FDA3
:100D000004D0D7DF0AD0001C38F4509540953095B8
:100D100021953F4F4F4F5F4F0895F6F7909580957F
:100D2000709561957F4F8F4F9F4F0895AA1BBB1BF6
:100D300051E107C0AA1FBB1FA617B70710F0A61BDB
:100D4000B70B881F991F5A95A9F780959095BC01FC
:100D5000CD0108952F923F924F925F926F927F92B2
:100D60008F929F92AF92BF92CF92DF92EF92FF92BB
:100D70000F931F93CF93DF93CDB7DEB7CA1BDB0B67
:100D80000FB6F894DEBF0FBECDBF09942A8839880C
:100D900048885F846E847D848C849B84AA84B98413
:100DA000C884DF80EE80FD800C811B81AA81B9811F
:100DB000CE0FD11D0FB6F894DEBF0FBECDBFED0133
:100DC0000895EE0FFF1F0590F491E02D0994A0E027
:100DD000B0E0EDEEF6E00C94B206EC0168817981AA
:100DE0008A819B81611571058105910521F464E279
:100DF00079ED8BE597E02DE133EF41E050E00E9483
:100E00007B0679018A0127EA31E440E050E00E9444
:100E100027065B016C01C801B7012CEE34EF4FEFE0
:100E20005FEF0E9427069B01AC012A0D3B1D4C1D64
:100E30005D1D57FF04C0215030404040504828837A
:100E400039834A835B835F77B901CA01CDB7DEB7C7
:100E5000EAE00C94CE060E94E706089580E091E057
:100E60000E94E7060895609300017093010180934A
:0C0E70000201909303010895F894FFCF55
:100E7C0001000000303132333435363738394142D5
:100E8C0043444546FE0100000000F20254028D026C
:060E9C00BC02A002DE0210
:00000001FF
