:100000000C9463000C948B000C948B000C948B006C
:100010000C948B000C948B000C948B000C948B0034
:100020000C948B000C948B000C948B000C948B0024
:100030000C948B000C948B000C948B000C948B0014
:100040000C9459050C948B000C9473030C94A4032A
:100050000C948B000C948B000C948B000C948B00F4
:100060000C948B000C948B000000000024002700EF
:100070002A0000000000250028002B0000000000DE
:1000800023002600290004040404040404040202DA
:100090000202020203030303030301020408102007
:1000A0004080010204081020010204081020000012
:1000B0000007000201000003040600000000000029
:1000C00000003502690411241FBECFEFD8E0DEBF67
:1000D000CDBF11E0A0E0B1E0E6EDFEE002C005908A
:1000E0000D92A631B107D9F711E0A6E1B1E001C048
:1000F0001D92AD3EB107E1F710E0C6ECD0E004C0C0
:100100002297FE010E941007C23CD107C9F70E9446
:10011000AB020C9469070C9400006F706A3018F4FD
:10012000862F805D0895862F895C0895FC012191BA
:1001300090E080E003C03191830F9F5F9217D9F761
:100140000895EF92FF920F931F93CF93DF93EC01EB
:10015000162F042FF52E8AE3898360933C01262F06
:1001600030E054E0359527955A95E1F720933B010F
:10017000CE01622F0E948D008A83CE01612F0E94E2
:100180008D008B8380E38C8383E38D832F2D332736
:1001900027FD309544E0359527954A95E1F7CE0146
:1001A000622F0E948D00E82E8E83CE016F2D0E945B
:1001B0008D00F82E8F83202F332727FD309594E074
:1001C000359527959A95E1F7CE01622F0E948D0013
:1001D000182F8887CE01602F0E948D008987EA86BC
:1001E000FB861C878D87EE86FF86188B898B81E1C5
:1001F0008883CE010E949600182F282F30E084E0DB
:10020000369527958A95E1F7CE01622F0E948D00E1
:100210008A8BCE01612F0E948D008B8B8DE08C8BA1
:100220008AE08D8BDF91CF911F910F91FF90EF901E
:1002300008952F923F924F925F926F927F929F927A
:10024000AF92BF92CF92DF92EF92FF920F931F93E4
:10025000DF93CF9300D000D00F92CDB7DEB78C01E3
:10026000B62E19821A821B821C821D82862F61E0A3
:100270000E94D3048B2D60E00E94F70462E170E0DD
:1002800080E090E00E94C7058B2D61E00E94F7049A
:1002900088E290E00E94EE058B2D60E00E94D3047E
:1002A00090E1E92E97E2F92E07C0E114F10409F478
:1002B00082C00894E108F1088B2D0E942F05009759
:1002C000A1F380E1E82E87E2F82E07C0E114F104E3
:1002D00009F471C00894E108F1088B2D0E942F05E4
:1002E0008130910599F3B8E2CB2ED12C9924A7E067
:1002F000AA2EF1E06F2E712C08C0E114F10409F46C
:100300005AC00894E108F10804C0E0E1EE2EE7E2EB
:10031000FE2E8B2D0E942F05009779F30E94A105D8
:100320001B012C0170E1E72E77E2F72E07C0E114E4
:10033000F10409F440C00894E108F1088B2D0E94F3
:100340002F058130910599F30E94A1056219730967
:1003500084099509693271058105910580F0E1E014
:10036000F0E0EC0FFD1FE90DF11DC3010A2C02C0E6
:10037000880F991F0A94E2F72081282B2083AA2056
:1003800021F4939467E0A62E01C0AA940894C108B2
:10039000D108C114D10409F0B8CF8981F801808354
:1003A00011829B8192831382890F9D81981731F06E
:1003B0002FEF3FEF05C02EEF3FEF02C020E030E00F
:1003C000C9010F900F900F900F900F90CF91DF9178
:1003D0001F910F91FF90EF90DF90CF90BF90AF9063
:1003E0009F907F906F905F904F903F902F900895D7
:1003F00085EC91E040E855E260E070E00E94EB039C
:1004000080E00E9433060E943D020895CF93DF935F
:1004100086E191E064E070E00E94190181E00E94B1
:100420003306AC01CAE1D1E0CE016EEF0E94A1001B
:10043000BE016F5F7F4F85EC91E045E150E00E9487
:10044000810268E873E180E090E020E137E240E07B
:1004500050E00E9463020E94C70580E00E943306BC
:100460000E943D02DF91CF910895EAE1F1E081E23F
:10047000DF011D928A95E9F70895009729F0BC01E4
:1004800080E090E00E9460070895EF92FF920F9342
:100490001F937B018C01611571058105910549F060
:1004A0000E945B07A80197010E94A8069B01AC016E
:1004B00003C020E030E0A901B901CA011F910F91EA
:1004C000FF90EF900895EF92FF920F931F937B019F
:1004D0008C01621773078407950764F4CA01B90198
:1004E0006E197F09800B910B0E944502E60EF71EE4
:1004F000081F191FB701C8011F910F91FF90EF90BE
:100500000895CF92DF92EF92FF920F931F93CF93B4
:10051000DF936C017B018A01C0E0D0E00FC0D701FE
:100520006D917D01D601ED91FC910190F081E02D5E
:10053000C6010995C80FD91F0150104001151105BA
:1005400071F7CE01DF91CF911F910F91FF90EF9046
:10055000DF90CF900895CF93DF930E94F8050E941B
:10056000F801CBE9D3E00E9406022097E1F30E9454
:100570009B03F9CFFC0184859585FC01E05CFF4F6E
:10058000208131818E5B9F4FFC0180819181281BEE
:10059000390B2F733070C9010895FC01848595854E
:1005A000FC01E05CFF4F40815181FC01EE5BFF4F9D
:1005B000208131814217530741F00190F081E02DF5
:1005C000E80FF91F208130E002C02FEF3FEFC90193
:1005D0000895FC0184859585FC01E05CFF4F408116
:1005E0005181FC01EE5BFF4F20813181421753079F
:1005F00071F0A081B181A80FB91F2C9180819181E8
:1006000001968F7390709183808330E002C02FEF4A
:100610003FEFC9010895DC011E968D919C911F97B3
:10062000FC01E05CFF4F8E5B9F4F40815181DC01FC
:100630002D913C91119742175307B9F70895CF9325
:10064000FC01C62F26853785D901A05CBF4F8D914F
:100650009C91019660E470E00E947306D901AE5B44
:10066000BF4F4D915C91119784179507D1F3D90134
:10067000A05CBF4F0D90BC91A02DA20FB31FCC93D7
:10068000A685B785A05CBF4F11969C938E93A689D3
:10069000B7892C9181E090E0058C02C0880F991FEA
:1006A0000A94E2F7282B2C9381E090E0CF910895F3
:1006B000FB01E05CFF4F208131812F5F3F4F2F73A3
:1006C0003070DB01AE5BBF4F4D915C9111972417E9
:1006D000350739F0A081B181A60FB71F8C93318304
:1006E0002083089508951F920F920FB60F92112440
:1006F0002F933F934F935F936F937F938F939F932A
:10070000AF93BF93EF93FF938091C6006DE371E0C9
:100710000E945803FF91EF91BF91AF919F918F91EC
:100720007F916F915F914F913F912F910F900FBEED
:100730000F901F90189585EC91E00E94BA020097E7
:1007400011F00E94720308951F920F920FB60F923C
:1007500011242F933F935F936F937F938F939F9376
:10076000AF93BF93EF93FF932091C1013091C201EA
:100770008091C3019091C4012817390731F4809109
:10078000C1008F7D8093C10016C0E091C301F0913C
:10079000C401EF57FE4F20818091C3019091C401A5
:1007A000019660E470E00E9473069093C401809308
:1007B000C3012093C600FF91EF91BF91AF919F912C
:1007C0008F917F916F915F913F912F910F900FBE0D
:1007D0000F901F901895DF92EF92FF920F931F9347
:1007E000CF93DF93EC017A018B01DD24D394403069
:1007F00081EE580780E0680780E0780749F4DD243F
:10080000EC89FD89108260E874E88EE190E00FC009
:10081000EC89FD8981E090E00E8C02C0880F991F61
:100820000A94E2F7808360E079E08DE390E0A8012C
:1008300097010E9486062150304040405040569516
:1008400047953795279580E12030380710F0DD2057
:10085000B1F6E889F9893083EA89FB892083EE893A
:10086000FF89408181E090E09C010A8C02C0220F48
:10087000331F0A94E2F7422B4083EE89FF894081BF
:100880009C010B8C02C0220F331F0A94E2F7422B0B
:100890004083EE89FF8940819C010C8C02C0220FAD
:1008A000331F0A94E2F7422B4083EE89FF892081AF
:1008B0000D8C02C0880F991F0A94E2F7809582235D
:1008C0008083DF91CF911F910F91FF90EF90DF9088
:1008D00008951092C8011092C70188EE93E0A0E03D
:1008E000B0E08093C9019093CA01A093CB01B0936B
:1008F000CC01E7ECF1E089E091E0929382938DE303
:1009000091E09587848781E891E09787868785ECD9
:1009100090E0918B808B84EC90E0938B828B80ECC9
:1009200090E0958B848B81EC90E0978B868B86ECA6
:1009300090E0918F808F84E0828F83E0838F87E0C7
:10094000848F85E0858F81E0868F0895833071F0F4
:10095000843028F48130A1F0823021F514C0863033
:10096000B1F08730D1F08430E9F404C08091800088
:100970008F7703C0809180008F7D809380000895E1
:1009800084B58F7702C084B58F7D84BD0895809132
:10099000B0008F778093B00008958091B0008F7D74
:1009A0008093B000089590E0FC01E656FF4F24913B
:1009B000FC01EA57FF4FE491EE23C1F0F0E0EE0FA7
:1009C000FF1FE859FF4F85919491DC01662341F4A4
:1009D0009FB7F8948C91209582238C939FBF0895A4
:1009E0009FB7F8948C91822B8C939FBF08950F939F
:1009F0001F93DF93CF930F92CDB7DEB7282F30E050
:100A0000F901E255FF4F8491F901E656FF4F149129
:100A10002A573F4FF90104910023D9F0882321F090
:100A200069830E94A6046981E02FF0E0EE0FFF1FAA
:100A3000EE58FF4F85919491DC019FB7F89466239F
:100A400021F48C911095812302C08C91812B8C9381
:100A50009FBF0F90CF91DF911F910F910895CF937A
:100A6000DF93282F30E0F901E255FF4F8491F9011F
:100A7000E656FF4FD4912A573F4FF901C491CC233A
:100A800091F0882311F00E94A604EC2FF0E0EE0F05
:100A9000FF1FE458FF4F85919491DC018C918D23C9
:100AA00021E030E011F420E030E0C901DF91CF9186
:100AB00008951F920F920FB60F9211242F933F9318
:100AC0008F939F93AF93BF938091E8019091E90139
:100AD000A091EA01B091EB013091EC010196A11DCA
:100AE000B11D232F2D5F2D3720F02D570196A11D0D
:100AF000B11D2093EC018093E8019093E901A0934C
:100B0000EA01B093EB018091E4019091E501A0919D
:100B1000E601B091E7010196A11DB11D8093E401AA
:100B20009093E501A093E601B093E701BF91AF91E7
:100B30009F918F913F912F910F900FBE0F901F901B
:100B400018959FB7F8942091E4013091E501409108
:100B5000E6015091E70186B5A89B06C08F3F21F0C2
:100B60002F5F3F4F4F4F5F4F9FBF542F432F322F69
:100B70002227280F311D411D511D82E0220F331FF6
:100B8000441F551F8A95D1F7B901CA010895EF9204
:100B9000FF920F931F93CF93DF937B018C010E94F1
:100BA000A105EB010FC00E94A1056C1B7D0B83E02A
:100BB000683E780738F00894E108F1080109110946
:100BC000C851DC4FE114F1040105110561F7DF9113
:100BD000CF911F910F91FF90EF900895019739F0F9
:100BE000880F991F880F991F02970197F1F70895B1
:100BF000789484B5826084BD84B5816084BD85B5F8
:100C0000826085BD85B5816085BDEEE6F0E08081BE
:100C100081608083E1E8F0E01082808182608083DF
:100C2000808181608083E0E8F0E080818160808362
:100C3000E1EBF0E0808184608083E0EBF0E0808194
:100C400081608083EAE7F0E0808184608083808136
:100C500082608083808181608083808180688083DE
:100C60001092C10008958E3008F08E5087709091D8
:100C700004019295990F990F907C982B90937C008A
:100C800080917A00806480937A0080917A0086FD5A
:100C9000FCCF2091780030917900932F80E030E0F4
:100CA000282B392BC9010895629FD001739FF00151
:100CB000829FE00DF11D649FE00DF11D929FF00DEC
:100CC000839FF00D749FF00D659FF00D9927729F23
:100CD000B00DE11DF91F639FB00DE11DF91FBD01AE
:100CE000CF011124089597FB092E07260AD077FD1E
:100CF00004D049D006D000201AF4709561957F4F3A
:100D00000895F6F7909581959F4F0895A1E21A2EC8
:100D1000AA1BBB1BFD010DC0AA1FBB1FEE1FFF1F9F
:100D2000A217B307E407F50720F0A21BB30BE40BEF
:100D3000F50B661F771F881F991F1A9469F7609536
:100D40007095809590959B01AC01BD01CF010895F0
:100D500097FB092E05260ED057FD04D0D7DF0AD009
:100D6000001C38F450954095309521953F4F4F4FDA
:100D70005F4F0895F6F790958095709561957F4F38
:100D80008F4F9F4F0895AA1BBB1B51E107C0AA1F9D
:100D9000BB1FA617B70710F0A61BB70B881F991F1C
:100DA0005A95A9F780959095BC01CD0108952F9291
:100DB0003F924F925F926F927F928F929F92AF92EB
:100DC000BF92CF92DF92EF92FF920F931F93CF9338
:100DD000DF93CDB7DEB7CA1BDB0B0FB6F894DEBFCF
:100DE0000FBECDBF09942A88398848885F846E84F5
:100DF0007D848C849B84AA84B984C884DF80EE803F
:100E0000FD800C811B81AA81B981CE0FD11D0FB647
:100E1000F894DEBF0FBECDBFED010895EE0FFF1FAA
:100E20000590F491E02D0994A0E0B0E0EAE1F7E04C
:100E30000C94DF06EC01688179818A819B816115C0
:100E400071058105910521F464E279ED8BE597E068
:100E50002DE133EF41E050E00E94A80679018A01BC
:100E600027EA31E440E050E00E9454065B016C0147
:100E7000C801B7012CEE34EF4FEF5FEF0E9454062C
:100E80009B01AC012A0D3B1D4C1D5D1D57FF04C08D
:100E90002150304040405048288339834A835B8347
:100EA0005F77B901CA01CDB7DEB7EAE00C94FB0663
:100EB0000E941407089580E091E00E9414070895AD
:100EC00060930001709301018093020190930301EC
:060ED0000895F894FFCF25
:100ED6000100000001000000001F038102BA02E9C0
:060EE60002CD020B030027
:00000001FF
