:10F80000314080021542200175F335D0085A3F403F
:10F8100000000F930724824520012F839F4F2EFB6A
:10F820000002F9233F4032000F9306248245200155
:10F830001F83CF430002FA23B240805A2001D242F4
:10F84000FF105700D242FE10560032D2F2D0030011
:10F850002600F2D003002200D2D32700C2432100A9
:10F86000B01266FA32D2B2D00300B00132D0180022
:10F870005E4200024F4E0F5F0F5F3F500C029F42EF
:10F88000B40100008F4302004F4E5F53C24F00028D
:10F890007F9229243D400C020E430F433E5D3F6D95
:10F8A0003D902C02FB230F110E100F110E100F11A3
:10F8B0000E10824E0602824F0802824E3002D24360
:10F8C00021004F433E40A6001E83FE235F537F90DE
:10F8D0006400F823B01244F9C2432100B0123CFA8C
:10F8E00032D0D800C03FC2430002D43F32D0F00033
:10F8F000FD3F30402CFBD242FF105700D242FE1099
:10F9000056003041A2426201B24020026001F24042
:10F910000A002C02924270017201B250680072011A
:10F920001F422E023FD000010F5F824F2E02B240D5
:10F9300030106201B2B010006201FC23B24000023C
:10F94000600130410B120A120912B2403A002E0235
:10F95000B01204F9B24030002E02B01204F9B240E5
:10F9600043002E02B01204F9B24030002E02B01251
:10F9700004F9B24033002E02B01204F91F423002E3
:10F980008F103FF0FF0012C30F100F110F110F1156
:10F990005B4F1CFB8B11824B2E02B01204F91F42ED
:10F9A00030028F103FF00F00594F1CFB8911824924
:10F9B0002E02B01204F91F42300212C30F100F11B1
:10F9C0000F110F113FF00F005A4F1CFB8A11824A92
:10F9D0002E02B01204F91F4230023FF00F005F4FB9
:10F9E0001CFB8F11824F2E020B5F3B5010010B59F5
:10F9F0000B5AB01204F90F4B12C30F100F110F1155
:10FA00000F113FF00F003A402E02DA4F1CFB0000AE
:10FA100092112E02B01204F93BF00F00DA4B1CFBDE
:10FA2000000092112E02B01204F9B24021002E0201
:10FA3000B01204F939413A413B413041F2D0300033
:10FA40005700F2D020005300B2401C5A2001D2D3FC
:10FA5000000030410E433D40A6001D83FE231E538F
:10FA60000F9EF92F3041B24060A0B201B240383849
:10FA7000B001034303433F404C011F83FE23B2D038
:10FA80000300B00132D018001E42B401824E0202BF
:10FA9000824304023F400C028F4E00008F4302005D
:10FAA0002F523F902C02F823824E06028243080216
:10FAB0003041D242FF105700D242FE105600B1C072
:10FAC000D00000000013B1C01000000000130F129E
:10FAD0000E120D12B250680072015F422C024F9359
:10FAE0001624B2D0800062011E422E021EB30B20EB
:10FAF00012C30E10824E2E027F53C24F2C023D4184
:10FB00003E413F410013B2F07FFF6201F13FB2F08E
:10FB1000EFFF62013D413E413F410013303132333E
:0EFB20003435363738394142434445460013E8
:10FFE000F2F8F2F8F2F8F2F8F2F8C6FAF2F8F2F8EB
:10FFF000F2F8CEFAB2FAF2F8F2F8F2F8F2F800F803
:040000030000F80001
:00000001FF
