:10F80000314080021542200175F335D0085A3F403F
:10F8100010000F930724824520012F839F4FFAFB8E
:10F820000002F9233F402F000F9306248245200158
:10F830001F83CF431002FA23B240805A2001D242E4
:10F84000FF105700D242FE105600E2D32600E2D34A
:10F850002200E2D22400F2F0FBFF2300E2D22500D6
:10F86000D2D32200F2F0FEFF2100C2433E02C24387
:10F870001002C243140232D2023C32D01800C293AA
:10F8800010020224B01226F9C2931402F627C243D2
:10F890001402B012B4F9F13F32D0F000FD3F304015
:10F8A000F8FBB2F0FDFFB001B2401818B0013F50B4
:10F8B0001800824FB201B2D00300B0013041B2F063
:10F8C000FDFFB0013E503838824EB0013F50180065
:10F8D000824FB2013F402A001F83FE23B2D00300B3
:10F8E000B0013041C2933E021D201F421A023FD098
:10F8F00000010F5F824F1A02F2400A001802A24272
:10F900006201B24020026001924270017201B25065
:10F9100068007201B24030106201B2B010006201A2
:10F92000FC233041FF3FC24310021F4216023F90AA
:10F9300032002D243F90330007283F9035003424B7
:10F940003F9036001D2430413F903100FC23D2D33C
:10F950002100824312020F43824F1A02B012E4F8D0
:10F9600082431A02B012E4F81F4212021F53824F60
:10F9700012023F900001F023F2F0FEFF210030411F
:10F980003E4040003F4000B0B012BEF83041B2F0FF
:10F99000FDFFB001B2401818B001B2401830B201FA
:10F9A000B2D00300B00130410E433F4000A0B0127E
:10F9B000BEF830410B120A120912B2403A001A0284
:10F9C000B012E4F85B421A02394000023A401A02CF
:10F9D000EA49000092111A02B012E4F85B521A02CE
:10F9E000DA490C00000092111A02B012E4F85B52DE
:10F9F0001A02EA49000092111A02B012E4F85B52AE
:10FA00001A02DA490300000092111A02B012E4F857
:10FA10005B521A021F421C028F103FF0FF0012C3FC
:10FA20000F100F110F110F11DA4F00020000921189
:10FA30001A02B012E4F85B521A021F421C028F1025
:10FA40003FF00F00DA4F0002000092111A02B012CC
:10FA5000E4F85B521A021F421C0212C30F100F116E
:10FA60000F110F113FF00F00DA4F0002000092114A
:10FA70001A02B012E4F85B521A021F421C023FF055
:10FA80000F00DA4F0002000092111A02B012E4F8DF
:10FA90005B521A024F4B12C34F104F114F114F11AF
:10FAA0003FF00F00DA4F0002000092111A02B0126C
:10FAB000E4F83BF00F00DA4B0002000092111A024A
:10FAC000B012E4F8B24021001A02B012E4F8394151
:10FAD0003A413B4130419242B4011C02D2431402EC
:10FAE000B1C0100000000013D2433E02F2F0FBFF51
:10FAF0002500F2F0FBFF2300B24020026001924299
:10FB000070017201B25034007201B24050006201C3
:10FB100082431602F2400900180200130F120E125F
:10FB20000D12C2933E021C20B250680072015F4267
:10FB300018024F934B24B2D0800062011E421A0279
:10FB40001EB30324B2F07FFF620112C30E10824E77
:10FB50001A027F53C24F18023D413E413F410013FC
:10FB6000B250680072015F4218024F931C20B240ED
:10FB700000026001B2F0EFFF6201C24F3E02F2F0FC
:10FB8000FBFF2300E2D225001F4216020E4F3EF07B
:10FB900001023E9000022724B1C0100006003D4142
:10FBA0003E413F4100135E4220002EF219241E42C6
:10FBB00016023ED0000412C30E10824E16027F536E
:10FBC000C24F18023D413E413F410013B240000286
:10FBD0006001B2F0EFFF62013D413E413F41001341
:10FBE0001E421602E83F12C30F103FF0FF00824F83
:0AFBF0001602D2431002D03F0013AA
:10FBFA003031323334353637383941424344454659
:10FFE0009EF89EF8E8FA9EF89EF8D6FA9EF89EF8DB
:10FFF0009EF81CFB9EF89EF89EF89EF89EF800F86E
:040000030000F80001
:00000001FF
