:10F80000314080021542200175F335D0085A3F403F
:10F8100000000F930724824520012F839F4FF6FAA3
:10F820000002F9233F4034000F9306248245200153
:10F830001F83CF430002FA23B240805A2001D242F4
:10F84000FF105700D242FE10560032D2E2D32600FB
:10F85000E2D32200B0122EFA32D2B2D00300B001AD
:10F8600032D018005E4200024F4E0F5F0F5F3F50D4
:10F870000C029F42B40100008F4302004F4E5F53C1
:10F88000C24F00027F921C243D400C020E430F43E6
:10F890003E5D3F6D3D902C02FB230F110E100F11AA
:10F8A0000E100F110E10824E0602824F0802824E79
:10F8B0003202B0121EF9B01216FA32D0D800CD3F83
:10F8C000C2430002E13F32D0F000FD3F3040F4FA85
:10F8D000D242FF105700D242FE1056003041A242E1
:10F8E0006201B24020026001F2400A002C02924202
:10F8F00070017201B250680072011F422E023FD0A7
:10F9000000010F5F824F2E02B24030106201B2B090
:10F9100010006201FC23B2400002600130410B1272
:10F920000A120912B2403A002E02B012DEF8B240BA
:10F9300030002E02B012DEF8B24043002E02B012A8
:10F94000DEF8B24030002E02B012DEF8B2403300D2
:10F950002E02B012DEF81F4232028F103FF0FF007D
:10F9600012C30F100F110F110F115B4FE4FA8B111F
:10F97000824B2E02B012DEF81F4232028F103FF08F
:10F980000F00594FE4FA891182492E02B012DEF8B5
:10F990001F42320212C30F100F110F110F113FF04F
:10F9A0000F005A4FE4FA8A11824A2E02B012DEF892
:10F9B0001F4232023FF00F005F4FE4FA8F11824F77
:10F9C0002E020B5F3B5010010B590B5AB012DEF8A0
:10F9D0000F4B12C30F100F110F110F113FF00F003B
:10F9E0003A402E02DA4FE4FA000092112E02B012D1
:10F9F000DEF83BF00F00DA4BE4FA000092112E0221
:10FA0000B012DEF8B24021002E02B012DEF8394109
:10FA10003A413B413041F2D030005700F2D0200053
:10FA20005300B2401C5A2001D2D300003041B240F2
:10FA300060A0B201B2403838B001034303433F40F5
:10FA40004C011F83FE23B2D00300B00132D0180056
:10FA50001E42B401824E0202824304023F400C0265
:10FA60008F4E00008F4302002F523F902C02F8234C
:10FA7000824E0602824308023041D242FF105700F4
:10FA8000D242FE105600B1C0D00000000013B1C039
:10FA90001000000000130F120E120D12B250680079
:10FAA00072015F422C024F931624B2D08000620193
:10FAB0001E422E021EB30B2012C30E10824E2E02C7
:10FAC0007F53C24F2C023D413E413F410013B2F0F3
:10FAD0007FFF6201F13FB2F0EFFF62013D413E4125
:10FAE0003F410013303132333435363738394142F3
:06FAF000434445460013EB
:10FFE000CCF8CCF8CCF8CCF8CCF88EFACCF8CCF82D
:10FFF000CCF896FA7AFACCF8CCF8CCF8CCF800F831
:040000030000F80001
:00000001FF
